:1000000009C0B7C0B6C0B5C0B4C0B3C0B2C0B1C0FB
:10001000B0C0AFC0889408F49895D8940DF4989522
:10002000F8940FF49895A8940AF49895C8940CF451
:100030009895E8940EF49895B8940BF49895989444
:1000400009F4989500913F00003009F098950894C4
:1000500008F0989558940DF0989578940FF098952D
:1000600028940AF0989548940CF0989568940EF0AE
:10007000989538940BF09895189409F098950091FC
:100080003F000F3F09F09895F8940FF49895E89485
:1000900000C00EEE0E3E09F098951FEF1F3F09F0CD
:1000A000989521E0213009F0989532E0323009F03E
:1000B000989543E0433009F0989554E0543009F0A6
:1000C000989565E0653009F0989576E0763009F00E
:1000D000989587E0873009F0989598E0983009F076
:1000E0009895A9E0A93009F09895B0E1B03109F0F0
:1000F0009895C1E1C13109F09895D2E1D23109F06A
:100100009895E3E1E33109F09895F4E1F43109F0D1
:10011000989500913F00000010913F00011709F0F1
:1001200098950113989500241124011098958894AE
:10013000010409F098950894010409F49895039432
:100140000894010409F0989500240394F1F70A94A7
:10015000F1F73CEF32953F3C09F0989533230AF0D4
:10016000989509F4989540E0442309F0989598955E
:04017000CCCFFFCF22
:00000001FF
